:020000040800F2
:10000000D8420020A1010008091E00080B1E0008AC
:100010000D1E00080F1E0008111E00080000000041
:10002000000000000000000000000000131E000897
:10003000151E000800000000171E0008191E000809
:10004000BB010008BB010008BB010008BB010008A0
:10005000BB010008BB010008BB010008BB01000890
:10006000BB010008BB010008BB010008BB01000880
:10007000BB010008BB010008BB010008BB01000870
:10008000BB010008BB010008BB010008BB01000860
:10009000BB010008BB010008BB010008BB01000850
:1000A000BB010008BB010008BB010008BB01000840
:1000B000BB0100080000000000000000BB010008B8
:1000C000BB0100080000000000000000BB010008A8
:1000D00000000000BB010008BB0100080000000098
:1000E000BB010008BB010008000000000000000088
:1000F0000000000000000000000000000000000000
:10010000000000000000000000000000BB0100082B
:100110000000000000000000BB010008BB01000857
:10012000BB010008BB010008BB010008BB010008BF
:10013000BB010008000000000000000000000000FB
:10014000BB010008BB010008BB010008BB0100089F
:10015000BB010008BB010008BB010008BB0100088F
:10016000BB010008BB010008BB0100080000000043
:10017000BB010008BB0100080000000000000000F7
:10018000BB010008BB010008BB010008DFF80CD070
:1001900000F014FD0048004751110008D84200202B
:1001A0000648804706480047FEE7FEE7FEE7FEE711
:1001B000FEE7FEE7FEE7FEE7FEE7FEE7D1220008E6
:1001C0008D01000840EA01039B0703D009E008C93C
:1001D000121F08C0042AFAD203E011F8013B00F80C
:1001E000013B521EF9D27047D2B201E000F8012B58
:1001F000491EFBD270470022F6E710B513460A46A7
:1002000004461946FFF7F0FF204610BD30B50446FE
:100210000020034600E05B1C934203D2E05CCD5C0F
:10022000401BF8D030BD00000FB400B589B00BA85A
:1002300000906A4603480A9900F0CAFA09B05DF8CE
:1002400014FB0000000000202DE9FF5F1D464FF069
:10025000FF3BD5E9014691465F464FF00008A9698A
:100260007F1C01988847296A824688470028F6D172
:10027000BAF1FF3F0CD024F4C064002E19DD6006F3
:1002800014D5BAF12B0F09D0BAF12D0F0ED103E01E
:10029000584604B000F07EB844F48064A9697F1C1D
:1002A00001988847761E8246002E02DDBAF1300F93
:1002B00003D0B9F1000F26D032E0A969761E44F4CC
:1002C00000747F1C019888478246002E05DDBAF134
:1002D000780F06D0BAF1580F03D0B9F1000F10D043
:1002E0001EE0B9F1000F02D0B9F1100F18D1A969C1
:1002F000761E24F400747F1C0198884782461020E3
:1003000002E0082000E00A20814609E008FB090815
:10031000A969761E44F400747F1C019888478246C0
:10032000002E05DD4946504600F044FA0028EDDA7B
:10033000E96901988847A00502D46FF00100A8E799
:10034000E00725D1600613D5600502D5C8F100008D
:1003500000E0404629680A1D2A600968220501D587
:10036000087015E0220701D5088011E008600FE051
:100370002868011D29600068210502D580F80080E9
:1003800006E0210702D5A0F8008001E0C0F8008057
:1003900038467EE730BCBDE8C09F00002DE9FF4F26
:1003A000087883B09946FF2805D0491C2D2804D031
:1003B0000024002008E000200BE00124F9E700EB16
:1003C000800003EB4000491C0B78FF2BF7D104B1F0
:1003D000404200230293147819461D462D2C01D06B
:1003E0002B2C04D1521C2D2C13D000240294AA468D
:1003F0001478FF2C0FD00A25A3FB057801FB05819B
:100400004FF0000C03FB0C11521CE3194AEB0101E5
:10041000EEE70124EAE7814453EA010002D019F52E
:10042000C87F06DA03980021C0E9001107B000F088
:1004300065B90025AE4E2F46DFF8B882184600F0A9
:1004400064FBCDE90001B9F1000002DAC9F1000452
:1004500000E004460023A74A1AEB030B42EB045AC0
:1004600012E0E00707D02A4633463846414600F0FE
:1004700068FA074688462A4633461046194600F071
:1004800060FA05460E466410002CEAD1DDE9000151
:10049000B9F1000F5A46534606DA00F0C7FA3A4659
:1004A000434600F0C3FA05E000F04BFA3A464346F3
:1004B00000F047FA029A0AB181F00041039AC2E9BA
:1004C0000001B3E72DE9FF4F1F468DB0D7E9014684
:1004D0004FF0FF382E2045464FF000090B90B969C8
:1004E0006D1C0E988847396A824688470028F6D1E5
:1004F000BAF1FF3F0AD024F4D064002E11DDBAF126
:100500002B0F08D0BAF12D0F0BD102E0404611B0ED
:100510008DE744F48064B9696D1C0E988847824663
:10052000761E6946600501D52D2000E02B208DF850
:10053000000001F1010B0DF1200809E0B9696D1C03
:100540000E98884782460F9844F40074761E056022
:10055000002E02DDBAF1300FF0D00B998A453ED162
:1005600044F0800406E00F99681CA9F1010944F4E5
:1005700000740860B9696D1C761E0E988847824623
:100580003028F0D02BE00B998A4505D1200603D402
:1005900044F08004761E18E0504602F050FA08B38A
:1005A0000DF11301761E44F400748B4508D2AAF1B4
:1005B00030000BF8010B200607D5A9F1010003E07C
:1005C000200602D409F101008146A00502D50F9949
:1005D000681C0860B9696D1C0E9888478246002E19
:1005E000D1DC53E0002E51DDBAF1650F02D0BAF133
:1005F000450F4BD1A00549D5B9696D1C24F4407451
:10060000761E0E9888478246002E0CDD2B2804D0DB
:10061000BAF12D0F07D144F48074B9696D1C0E989E
:1006200088478246761EE00501D52D2100E02B216A
:1006300008F8011BCDF82C8021E00DF12901761E70
:1006400044F4007488450CD2AAF1300010F0FF0089
:1006500088F8000002D10B99884509D908F10108F2
:1006600006E0E00501D5244801E042F20F70814622
:10067000B9696D1C0E98884782460F980560002E58
:1006800004DD504602F0DBF90028D6D1F9690E9856
:100690008847FF208BF8000088F8000000200690B3
:1006A00007904B466A4608A906A8FFF777FEA00503
:1006B00002D46FF001002AE714F0240F0AD0E007FB
:1006C00014D1DDE906123868031D3B600068C0E9FB
:1006D00000120BE0DDE9060100F054FA0146E007E4
:1006E00004D13868021D3A600068016028460EE7B0
:1006F000000014400000F03FF1D8FFFF30BCBDE81F
:10070000C08F30B50B46014600202022012409E0AD
:1007100021FA02F59D4205D303FA02F5491B04FABA
:1007200002F52844151EA2F10102F1DC30BD2DE9CD
:10073000F05F0546002092469B4688460646814665
:1007400040241BE0284641464746224600F05EFA18
:1007500053465A46C01A914110D3114618462246B4
:1007600000F019F82D1A67EB01084F4622460120C8
:10077000002100F010F817EB00094E41201EA4F1F3
:100780000104DFDC484631462A46434600F000B803
:1007900030BCBDE8C09F202A04DB203A00FA02F1F9
:1007A000002070479140C2F1200320FA03F319435F
:1007B000904070473A2800D2303820F02002412A79
:1007C00001D3A2F13700884201D34FF0FF307047C8
:1007D000024B9361024BD36100F040BA291D00081F
:1007E000FD0B00082DE9FE4F804681EA0300C00F93
:1007F0000C46009021F0004123F00045B8EB0200C8
:10080000A94105D24046214690461C460B46024669
:1008100023F00040104347D0270DC7F30A00C3F36D
:100820000A510290401A019040286BDAC3F313007A
:1008300040F4801B0098924620B10023D2EB030ABB
:1008400063EB0B0B01985946C0F140025046FFF78D
:10085000A2FF06460D4650465946019A00F0E6F9B9
:1008600010EB08006141002487EA115284EAE77323
:100870001A4340D0009A62B3019A012A4FEA075204
:1008800015DC001B61EB02014FF0004202EA075247
:10089000CDE90042001C41F5801132462B4600F0A4
:1008A00031FA03B000F045B840462146F9E7001B95
:1008B00061EB0201001C41F5801300185B41201818
:1008C000A2F5001747EB030140EAD570B6196D4158
:1008D00011E06D084FEA360645EAC0754FEA075247
:1008E000001B61EB0201001C41F5801149084FEA31
:1008F00030000019514132462B4603B000F01CB8BD
:1009000000F0F1B90098012240000023D0EB020270
:1009100063EBE073009821464FEAE074B8EB000007
:1009200061EB0401E9E783F000435BE781F00041FC
:1009300058E730BCBDE8C08F30BCBDE8C04FFFF702
:10094000DFBF2DE9FE4F81EA030404F0004421F0EB
:10095000004100944FF0000B23F0004350EA0104E3
:100960005ED052EA03045BD0C3F30A54C1F30A55C4
:100970002C44A4F2F3340194A0FB0254C1F31301FC
:1009800041F48011C3F3130343F4801301FB0244C9
:1009900000FB034E840A970A44EA815447EA8357CE
:1009A000A4FB076802958D0A05FB07854FEA932C87
:1009B00004FB0C542705029D4FEA065847EA1637F8
:1009C000B5EB08056EEB070C870E920E47EA811710
:1009D00042EA8312A7FB0201B6EB0B0164EB0004B1
:1009E0002B0D43EA0C335E1844EB1C50DA4651469B
:1009F000E7FB0201C5F313044FEA0B3343EA145338
:100A00004FEA0432019C43EA0603A4F10C04029469
:100A1000009CCDE900B400F075F903B000F003B814
:100A200000200146F9E730BCBDE8C08F2DE9F04D4C
:100A300081EA030404F0004B21F0004514464FF016
:100A4000000A23F0004150EA050220D054EA0102D6
:100A50001DD0C5F30A570246C5F31303C1F31300B3
:100A6000C1F30A5640F4801543F48013A7EB06083F
:100A7000101BD64608F2FD3873EB050002D308F1CF
:100A8000010801E092185B41B8F1000F03DA002081
:100A90000146BDE8F08D00204FF4801106468446E3
:100AA0000EE0171B73EB050705D3121B63EB050361
:100AB00006434CEA010C49084FEA300092185B41AA
:100AC00050EA0107EDD152EA030012D082EA040095
:100AD00083EA0501084305D0101BAB4106D2012271
:100AE000002306E000224FF0004302E06FF0010215
:100AF00053101AEB06004CEB085110EB0A0041EBC7
:100B00000B01BDE8F04D00F0EEB80EB540F23342F7
:100B100002920022CDE90022134600F0F3F803B060
:100B200000BDC1F30A52C1F3130140F2FF3341F497
:100B300080119A4202DA00200146704740F23343A6
:100B40009A42A2F2334202DC524200F05FB8FFF751
:100B500022BE000030B5041E71F1000404DB4FF02A
:100B60000044404264EB0101141E73F1000405DBF4
:100B70001C464FF00043524263EB0403994208BF06
:100B8000904230BD01F0004330B421F0004150EA02
:100B9000010206D00A0DA2F56072C1F31301002A0A
:100BA00002DC30BC00207047440F44EAC104C1009D
:100BB000E01830BC00EBC25000F05EB8064C074DA8
:100BC00006E0E06840F0010394E80700984710341D
:100BD000AC42F6D3FFF7DEFAF060000810610008BF
:100BE000094910B508784C1C18B1401E0870205CEB
:100BF00010BD00210720ABBE207010BD024908784F
:100C0000421C0A707047000010000020202A04DBFC
:100C1000203A21FA02F00021704721FA02F3D04075
:100C2000C2F120029140084319467047202A06DB92
:100C3000CB17203A41FA02F043EAE07306E041FAAA
:100C400002F3D040C2F12002914008431946704798
:100C5000026811441378016018467047D160044956
:100C600051610449116200211161114600F09EB8E2
:100C7000510C0008A10D00080029A8BF7047401CB6
:100C8000490008BF20F00100704710B4B0FA80FCA2
:100C900000FA0CF050EA010404BF10BC704749B1DF
:100CA000CCF1200421FA04F411FA0CF118BF01214F
:100CB00021430843A3EB0C01CB1D4FEA00614FEA2F
:100CC000102042BF002010BC704700EBC3501044FE
:100CD0000029A4BF10BC7047401C490008BF20F089
:100CE000010010BC704710B5141E73F1000408DA3F
:100CF000401C41F1000192185B411A4301D120F0E0
:100D0000010010BD2DE9F04D92469B4611B1B1FA9C
:100D100081F202E0B0FA80F220329046FFF73BFD0C
:100D200004460F4640EA0A0041EA0B0153465A4680
:100D3000084313D0114653EA010019D0C8F140020C
:100D40005046FFF763FF05460E4650465946424659
:100D5000FFF721FD084305D0012004E02046394675
:100D6000BDE8F08D0020054346EAE0762C4337438A
:100D70000A986305E40AA0EB08000022FD0A44EA91
:100D800047540A3002D500200146E9E70105101951
:100D90006941DDE9084500196941BDE8F04DA2E768
:100DA000C0B24FF4F05100F09BB900002DE9F34FB1
:100DB0008BB04FF0000801F10C000C464FF0010B16
:100DC00046460DF1080A0190626901210198904799
:100DD000051E2DD0252D2CD0216A8847C0B162690F
:100DE000012101989047216A88470028F7D1411EC8
:100DF00062690198904700E0761CA1690B988847CA
:100E0000216A88470028F7D1E1690B988847DBE71A
:100E1000A1690B9888470746A84201D1761CD3E701
:100E2000E1690B9888477F1C02D1B8F1000F6FD0A1
:100E300046E1002762693D463946019890472A28D5
:100E400004D162690121019890470125DFF884925D
:100E50006269012101989047A0F130010A290AD264
:100E60004F45E5DC07EB870100EB4107303FDFD45E
:100E700045F01005ECE7E90601D46FF000476C2857
:100E80000AD04C2814D0682815D06A280DD07428B0
:100E90001CD07A281AD01DE0626901210198904780
:100EA0006C2802D045F0040514E045F002050DE081
:100EB00045F020050AE06269012101989047682801
:100EC00002D045F0080505E045F40065626901219E
:100ED00001989047C4E9015765283DD019DC58288E
:100EE0007AD00CDC452837D004DC252826D04128D0
:100EF00031D131E046282FD047282CD12CE05B2877
:100F000077D0612828D063287CD0642823D15AE088
:100F1000D0E06F2848D008DC66281DD067281BD099
:100F2000692821D06E2816D127E0702845D0732873
:100F300068D0752847D078280DD14DE0A1690B986D
:100F40008847054625283FF469AFE1690B98884733
:100F50006D1C3FF46AAFB3E023466A466FF00100B0
:100F60000B99FFF7AFFA9EE045F040006060A807DC
:100F700023464FF0000236D43EE0E8077FF447AF47
:100F80002068011D21600068290501D506701BE756
:100F9000290701D5068017E7A90703D5F117C0E98E
:100FA000006111E706600FE745F040006060A807A8
:100FB00023464FF0080216D41EE040F60E0125EA43
:100FC0000100606016E045F040006060A80723461D
:100FD0004FF00A0207D40FE045F040006060A80718
:100FE00008D5234610226FF001000B99AFF3008063
:100FF00059E007E0234610226FF001000B99FFF73C
:1010000023F950E04FF000094F464B46632802D0C9
:101010005B2806D040E0E80601D40120A06001274B
:101020003AE062690121019890475E2805D14FF0AE
:1010300001096269494601989047216939B900213F
:101040000A46534643F82120491C0829FADBB0B36D
:10105000216969B9C11700EBD16253110AEB830111
:1010600022F01F02821A01200B68904003430B609C
:1010700062690121019890475D28E8D1B9F1000F1C
:1010800009D00020514651F82020D24341F82020B9
:10109000401C0828F7DB02AB224600976FF00100E6
:1010A0000B99AFF3008000280CDA401C08D1BBF18B
:1010B000000F05D04FF0FF300DB000F00DB8FFE786
:1010C0004046F9E7E90701D108F1010806444FF06D
:1010D000000B79E6CCCCCC0C30BCBDE8C08F000056
:1010E0007F2801D9002208E0064A02EB5002C0071F
:1010F000127800D1120902F00F020120904008403E
:1011000070470000BC4B000881B00F4ADFF83CC0BC
:101110001068DCF81400516893680131CB1A009311
:10112000136813F4803F4FF47A731FBFDCF8140088
:1011300092688A1A0092009A5A43B2FBF1F100FBBE
:10114000031001B0704700BF10E000E090320020B3
:101150002DE9F04F95B000204FF6FF020590A14811
:1011600001681140A04A11430160002000F05CFEBC
:101170009E4E88B9B06D40F00100B065B06D00F0D2
:10118000010007900798306D40F080503065306D59
:1011900000F080500790079831687068944F11F004
:1011A0000C0405D000F003000C2C08BF012847D127
:1011B0003868386810F0080F06BFD6F88C000009B0
:1011C000386800F0E0005F2815D8602000F06AFE63
:1011D000002840F0A4803868062140F008003860FC
:1011E000386861F30710386056F8040C20F47F402B
:1011F00046F8040C10E038680621002C40F0080086
:101200003860386861F30710386056F8040C20F431
:101210007F4046F8040C23D000F08AFE31680FF6B8
:10122000FC12C1F30311515C01F01F01C840DFF84B
:10123000FC194860086800F0F7FD00286FD124E031
:10124000386840F001003860DFF8CC0941693A683D
:1012500012F0020F0AD14269521A022AF7D95EE04F
:10126000602000F01FFE002859D1D5E7386806211C
:1012700040F008003860386861F30710386056F8AD
:10128000040C20F47F4046F8040C7068594908406B
:101290005949884217D1386810F0007F43D1386827
:1012A00040F080703860706840F080707060DFF8E7
:1012B000680941693A6812F0007F34D14269521AD4
:1012C000032AF7D32BE00C2C29D0386810F0806F5C
:1012D00025D1386820F080703860DFF83C09426919
:1012E0003B6813F0007F04D043699B1A022BF7D9A7
:1012F00015E07268414B1A4011437160396841F042
:1013000080713960716841F08071716041693A683B
:1013100012F0007F07D14269521A022AF7D9EFF37F
:10132000108072B6FEE7364D286800F004000328EE
:1013300009D82868042161F302002860286800F0B9
:10134000070004284AD13068386810F0007F45D083
:101350003068DFF8C44841F2883140F00300306063
:101360006069326802F00C020C2A04D06269121A19
:101370008A42F6D932E0306810F0F00F1EBF3068B4
:1013800020F0F0003060286800F00700052809D33D
:101390002868042161F302002860286800F0070033
:1013A00004281BD1306820F4E0603060306820F4FD
:1013B0006050306000F0BCFD31680FF66002DFF86D
:1013C0006C88C1F30311515C01F01F01C840C8F8DB
:1013D0000400D8F8000000F027FD98B1EFF310806A
:1013E00072B6FEE70CED00E00003FA0508100240BB
:1013F00000100240737F60FE012800388C809D0140
:1014000000200240D6F8800020F00C00C6F88000D2
:10141000D6488146006800F4C060B0F5007F1CD05B
:101420004A460121106861F34A2032211060D8F841
:1014300004004843CE49B0FBF1F0C143CD480368F6
:101440004A1C002903F4806302D0002B1146F6D118
:10145000006810F4806F40F0EF804FF00008082122
:101460004FF0010BCDF82C80706C40F004007064DC
:10147000706C00F0040006900698706C40F001005B
:101480007064706C00F0010006900698706C40F07B
:1014900002007064706C00F0020006900698B64876
:1014A0008162079107A9CDE908B8CDF8288000F03E
:1014B000CFFD05F58050206284F8248084F82580D3
:1014C000C4E90D88C4F840B094F83D0050B984F8E0
:1014D0003C80306C40F480503064306C00F48050BC
:1014E000079007984FF0020A84F83DA0A348A4494A
:1014F000C160016821F0180101604FF0FF31816087
:10150000016821F060010160016821F08001016043
:10151000A9F53051DFF818974FF4E13084F83DB069
:10152000C9F80010C9E901080C20C9E90388C9F805
:101530002480C9E90788C9E90508D9F87820914CC1
:1015400032B14FF0000E4FF0000C002500223DE0BC
:101550000DF11C0BA04600241421584689F8744054
:10156000FEF749FE306D0325594640F400303065E2
:10157000306D00F4003006900698706C40F0010069
:101580007064706C00F00100069006980420CDE9AC
:10159000070A072009940A950B904FF0904000F03D
:1015A00057FD4FF400405946CDE9070A4FF09040EF
:1015B00009944446CDE90A5500F04AFDD9E9022EC6
:1015C000D9E90450D9E9068CD9F8001024232A431C
:1015D000C9F8783010430B6840EA0C0023F001038F
:1015E0000B600A68684B1A40A7F5C833104399424C
:1015F0000860486820F4405040EA0E004860D9F87E
:10160000200018BF48EA0008886820F4306040EAEB
:10161000080088605D485E4A914211D027465D4CC3
:101620001022A14210D05C4CA1421BD1D6F88020E0
:101630003C4604F580640BE0EFF3108072B6FEE7E1
:10164000D6F88020920803E0D6F880203C46920A23
:1016500082F002026FF31F5402F0030242EA820298
:1016600024FA02F2994215D002F01F01BCF5004F96
:1016700023D1082900F2FB81DFE811F009005000B6
:101680005900F9015300F901F901F901570000F07F
:10169000BBFC48E002F01F01082900F2E881DFE806
:1016A00011F00900E6012300E6011D00E601E60154
:1016B000E601210000F0A8FC12E0082900F2D78121
:1016C000DFE811F009004C007000D5014F00D50192
:1016D000D501D5016E0000F097FC44E000F028FC35
:1016E00010B970E04FF40040D9F8042002EB420337
:1016F00011039842C0F0BB81884200F2B881010E0C
:101700000002002310EB520041F10001FFF70FF837
:10171000224AA0F5407191421DD9A8E100F086FC53
:1017200001E000F005FC10B94DE04FF40040D9F89D
:1017300004104A0802EB40004FF6EF72B0FBF1F0E4
:10174000A0F11001914200F292814FF6F071014038
:10175000C0F342000843D9F8001033E000F066FC03
:1017600001E000F0E5FBE8B92DE000BF00700040AB
:1017700040420F001470004000040048083002404E
:10178000B71DC10402010200F369FFEF0024F40059
:10179000004400400080004000380140FFFC0F0082
:1017A0004FF40040D9F804104FF6EF7200EB5100EF
:1017B000B0FBF1F0A0F11001914200F25881D9F88C
:1017C000001080B2C8600020C9E91900D9F82410BF
:1017D000002962D0CA0708D0D9F800205368D9F888
:1017E000287023F400333B4353608A0708D5D9F8A7
:1017F00000205368D9F82C7023F480333B435360A6
:101800004A0708D5D9F800205368D9F8307023F476
:1018100080233B4353600A0708D5D9F8002053685A
:10182000D9F8347023F400433B435360CA0608D50B
:10183000D9F800209368D9F8387023F480533B43DB
:1018400093608A0608D5D9F800209368D9F83C70CF
:1018500023F400533B4393604A0613D5D9F8002084
:101860005368D9F8407023F48013B7F5801F43EA1A
:101870000703536006D15368D9F8447023F4C003BA
:101880003B435360090608D5D9F800104A68D9F8D7
:10189000483022F400221A434A60D9F800104A68FE
:1018A00022F490424A608A6822F02A028A600A681A
:1018B00042F001020A60C9F88000D7484769086809
:1018C00010F0080F0AD0DB4A4FF40010394600F040
:1018D00093FC002840F0CE80D9F80010086810F082
:1018E000040F08D0D34A4FF48000394600F084FC3E
:1018F000002840F0BF8020204FF0804241F2883322
:10190000CF4CC9F87800C9F87C000020C9F8600005
:1019100089F87400DFF80093316D41F00101316501
:10192000316D01F0010107910799116821F45C7193
:101930001160C1498B6209234B620B6943F00103BB
:101940000B61136843F0800313604A68BB4B1A4075
:1019500001234A600A6822F070020A604A6822F095
:1019600080024A60052104F11002CDE9001009F15E
:101970000800002102F08EFB10F0FF0F40F0B48051
:10198000B049B14A07AD284602F00EFB002800F02E
:10199000A780BA4E05F10C07002505E03846294618
:1019A000324601F0C3FE0135BDF82A008542F5DB61
:1019B000D9F8087007A9384602F002FC0546002D48
:1019C00000F08E80DFF850A207AA0121504602F0F5
:1019D00025FB012852D1954801260346986940F01D
:1019E00080409861DAF80000C3E9080000F58162E0
:1019F000996841F08041996000F57F71C3E9041155
:101A0000996D41F08041996500F60801C3E918120B
:101A1000996C41F08041996441F2B4010144C3E9F9
:101A200014118A490A6A42F080420A6241F20412A1
:101A30000244C1E90A220A6942F080420A6141F285
:101A400024420244C1E906220A6E42F080420A663C
:101A500041F24C420244C1E91A220A6D42F080422E
:101A60000A6541F29C421044C1E916000CE00020D6
:101A7000C9E91900EFF3108072B6FEE7284630215D
:101A8000122202F073FC00260AF1040007AA0121C9
:101A900002F0AEFAE0B1DAF80400644A00F5DE7153
:101AA000C2E91011C2E90C00C2E91C11674900F13A
:101AB0005002C1E90200C1E90E22C1E9120028303A
:101AC000C4E90200384602F004FC064208D00BE0EC
:101AD00028463021132202F049FC384602F0F9FB77
:101AE000D9F8080002F05EFBD9F80800584D10B98B
:101AF000204640F8105F002102F0A4FAC9F80C005B
:101B0000D9F8080010B944F8105F2046002102F00F
:101B100033FC9FED3F0BC9F8100009F1180040F2AB
:101B2000E2450FF23C1A0DF11C0B049051EC100B26
:101B3000CDE9021047A000F049FCDFF82091002613
:101B400019E000244F4610E04FF0000808E050462E
:101B50005946FEF769FB079847F8280008F1010885
:101B6000B8F1010FF3D104370134AC42ECD141F2AA
:101B7000883001368144012EE3D1274E70697169A6
:101B8000091A0229FBD3FFF7BFFA8046F1683348F0
:101B90004860326904985060B06802F0BDFBFFF7FE
:101BA000B3FA04462FA000F011FC70697169091A9C
:101BB0000229FBD32CA005A9FEF736FB0598C828FF
:101BC000B8D1204600F08FFB044640460F4600F097
:101BD0008AFB02460B4620463946FEF7A4FEDDE9A5
:101BE0000232FEF723FF96ED060A96ED071A02462B
:101BF0000B46B4EEC10AF1EE10FAD4BF1BA01DA033
:101C000000F0E4FB70697169091A1F29FBD391E7A1
:101C10000000000080842E4190320020000000006F
:101C20000000000001020304060708095007002015
:101C300004320020FFFFFF0104000040F8BFFEFF58
:101C400040080020304C0008384C0008D007002025
:101C50000001C0A1626567696E00000038090020BC
:101C6000256600006F6B000025640000312C252ED6
:101C700036660000302C252E36660000C01C002081
:101C8000F8B5274D0090A86F202845D195F874002D
:101C9000012841D00121002021226E4685F87410D0
:101CA000C5F88000AA671F4A5469A5F85010A5F826
:101CB0005210A968B1F5805F06D129690027002973
:101CC00004BF37460E4600E0002785F8740016E092
:101CD000802021464FF6FF7200F08EFAE0B92868A6
:101CE00016B116F8011B04E037F8021B00266FF34B
:101CF0005F210185B5F852000138A5F85200B5F80A
:101D000052000028E4D1402021464FF6FF7200F037
:101D100073FA08B92020A8675DF8040BF0BD00BF76
:101D200004320020903200202DE9FC41344DE86F50
:101D3000202860D195F8740001285CD00120002192
:101D4000222285F87400C5F88010EA6729662D49BB
:101D5000D1F81480A5F85800A5F85A00A868B0B1C9
:101D6000B0F1805F19D0B0F5805F1CD12F690DF103
:101D70000700FF260446002F08BF40F2FF16A5F813
:101D80005C6018BF0024002F18BF074611E02869C7
:101D90007F26002808BFFF2606E028693F26002886
:101DA00008BF7F2600E000260DF107070024A5F8F4
:101DB0005C60002085F8740017E0202041464FF653
:101DC000FF7200F019FAB0B92868002F808C00EA81
:101DD000060002D007F8010B02E024F8020B0027EE
:101DE000B5F85A000138A5F85A00B5F85A0000288D
:101DF000E3D12020E8679DF8070002B0BDE8F0813C
:101E00000432002090320020FEE7FEE7FEE7FEE706
:101E1000FEE77047704770470248416901314161F0
:101E2000704700BF9032002010B5DFF86CC04FF44F
:101E30007A73DCF80410B1FBF3F14B1E0021B1EB17
:101E4000136F01D0012124E0144CF0220F286360AD
:101E5000134BDA75A1604FF0070121604FF00101CB
:101E600017D81A68C2F3022202F1040ED41E82F0BF
:101E70000702BEF1070F38BF0024042A28BF04223E
:101E8000914001390140A1400901D9750021CCF8E8
:101E90000000084610BD00BF5007002010E000E021
:101EA0000CED00E01F490B681F4A13F0805F10D152
:101EB00081B00B6843F080530B600B6803F08053D4
:101EC0000093009B12680B6823F080530B6001B0F5
:101ED00000E01268154902F4C062B2F5007F06D135
:101EE000812808D30122A02888BF02220EE0802882
:101EF00003D903220AE0002208E0A0F17002802842
:101F0000B2FA82F24FEA521208BF0222086820F0A9
:101F1000070010430860086800F00700801A18BF27
:101F2000012070475810024000700040002002401D
:101F3000B0B526498A68C868254D12F00C03254AB9
:101F400005D00C2B04BF00F00300012813D1086852
:101F500010F0080F03D1D1F89400000A01E00868DE
:101F6000000900F00F001CA4002B54F8204020466C
:101F700018BF00200BE003F00F00042804BF104638
:101F8000B0BD082804BF2846B0BD002000240C2B9B
:101F900018BFB0BDC86800F00300022803D00328B2
:101FA0002A4618BF2246C868CB68C9680225C1F313
:101FB0004161C3F30623C0F302105A43013005EB1D
:101FC0004101B2FBF0F0B0FBF1F0B0BD00100240F7
:101FD00000127A000024F400A0860100400D0300E6
:101FE000801A060000350C0040420F0080841E005D
:101FF00000093D0000127A000024F40000366E0152
:102000000048E801006CDC020548074A40680549C1
:102010000968C1F30221515C01F01F01C8407047FB
:102020005007002008100240E86000080548074AF1
:10203000406805490968C1F3C221515C01F01F01E4
:10204000C84070475007002008100240E8600008B0
:102050002DE9FC4F624A07234FF0000A4FF0010EB2
:102060004FF0000B0026904208BF022300930B683C
:1020700033FA06F208BF00F033B90EFA06F213EA9B
:10208000020900F0A6804C6804F003035D1E012DD8
:1020900019D8032707FA0BF5876827EA050CCF68DC
:1020A00007FA0BF747EA0C078760C4F3001707FA33
:1020B00006FC476827EA020242EA0C026FEA050CB6
:1020C0007500426009E00322032B5D4602FA0BF221
:1020D0006FEA020C01D15D461BE0C7688A68022BDB
:1020E00007EA0C0702FA05F242EA0702C26010D1C1
:1020F0003C4C0AF01C020F23934004EA56070744A5
:102100003C6A24EA03030C6904FA02F21A433A62B5
:102110004C68036804F0030214F4403F02FA05F22D
:1021200003EA0C0342EA0302026052D02E4A0AF08C
:102130000C0E0F27B0F1904F07FA0EF7136843F01B
:10214000010313604FEA9603126802F00102019244
:10215000019A264CA4F57E7555F8232022EA07083B
:10216000234A07D0234FDDF800C0B84208BF4FF024
:10217000010C01E04FF0000C0CFA0EF74FF0010ECD
:1021800047EA080745F82370A3684F6823EA090364
:1021900017F4801F18BF43EA090317F4001FA36058
:1021A000136823EA090318BF43EA090317F4003F41
:1021B0001360626822EA090218BF42EA090217F4B2
:1021C000803F6260226822EA090218BF42EA0902DF
:1021D00022600AF1040A0BF1020B013647E700BF47
:1021E00000080048FCFFFF7F60100240000401402F
:1021F0000C04014000040048B0B5DFF8CCC0334CFB
:10220000531CDCF800E0DEF81C500540854215D078
:10221000002BF8D06569B2B16D1A954213D8DEF87B
:10222000005015F0040F1CBFDEF81C5015F4006FB1
:10223000E9D04FF40060CEF820001FE00020C0B2CB
:10224000B0BDDCF800E05EE8000FDCF8001020F420
:10225000D07041E80002002AF3D1604650F87C1BA0
:1022600051E8022F614651F8783B22F0010243E821
:102270000225002DF1D11EE0DCF800E05EE8000F41
:10228000DCF8001020F4D07041E80002002AF3D1FD
:10229000DCF8000050E8020FDCF8001020F001002C
:1022A00041E80202002AF3D120200CF17C01CCF895
:1022B00078000CF1800020220A60026000208CF877
:1022C00074000320BBE700BF0432002090320020DE
:1022D0000248016841F470010160704788ED00E038
:1022E0001CBCBDE8E08F0EB540F2334102910021E5
:1022F000CDE900110A460B46FEF704FD03B000BD10
:1023000070B58D1810F8014B14F0030201D110F8CC
:10231000012B231106D110F8013B03E010F8016BEB
:1023200001F8016B521EF9D1ABB110F8012B04F08A
:102330000C048A1A0C2C03D0A2EB84129B1C08E01C
:1023400010F8014BA2EB0422F8E712F8014B01F858
:10235000014B5B1EF9D5A942D4D3002070BD00000B
:10236000144810B5016821F00101016000F033FA52
:1023700011490968114BC1F30221114A01240429B2
:102380000BD010490C600C68002CFCD10D490839A9
:102390000B60096891420AD0FEE70B498C608C689B
:1023A000002CFCD10B600968914200D0FEE700F0E0
:1023B00080FA10BD002000E0002004E0C2A507F470
:1023C000CDB5E8B5084C0258003002400FB4054BBB
:1023D00010B503A9044A029800F050FD10BC5DF846
:1023E00014FB0000811C0008040000209FED3C0A43
:1023F00063E000BF92ED003A91ED004AD2ED012A70
:10240000D1ED013A04EE030A92ED022A91ED021A8F
:10241000D2ED030AD1ED031A91ED044A03EEA20AAC
:10242000D2ED043A92ED053AD1ED052A01EE020A09
:1024300092ED062A92ED071A01EEA00AD1ED061AD6
:10244000D1ED070A04EE230AD2ED083A91ED084ACD
:1024500002EE830AD2ED092A91ED093A01EE820AD1
:1024600092ED0A2AD1ED0A1A00EE810A92ED0B1ABA
:10247000D1ED0B0A04EE230A91ED0C4AD1ED0D3A91
:1024800003EE220A92ED0C3AD2ED0D2A01EE820AF9
:1024900092ED0E2AD1ED0F1A00EE810A91ED0E1A7F
:1024A000D2ED0F0A40314032103B04EE030A03EE36
:1024B000A20A01EE020A01EEA00A102B9AD206E04F
:1024C000F1EC010A5B1EB2EC011A00EE810A002B4E
:1024D000F6D1D0ED000A30EE800A80ED000A704798
:1024E0000000000030B528B1144C031F0020216803
:1024F0000A4605E0084630BD9A4203D810465268A5
:10250000002AF9D1002800D041680BD00468A3EB61
:102510000005A54204D11B681C440346046002E088
:10252000436000E023603AB11C68D51AA54203D18C
:1025300015682C441C6052685A6030BD08000020A9
:102540002DE9F04782460F4C10480D4E0E4F001BF0
:102550004FF0000820F007054FF001090022114656
:10256000504602F025FA002802D1306810B1002050
:10257000BDE8F0873C60C4E90058C6F80090EDE77C
:102580000C000020DC32002008000020D83A002097
:1025900002E008C8121F08C1002AFAD1704770472C
:1025A000002001E001C1121F002AFBD1704700008A
:1025B000F0B5059D25F0010403EB84069FED460A66
:1025C000EF085AE051F8044BD3ED002A04F0FF0C59
:1025D0004FEA1C1E02EB8E0E0CF00F0C9EED002A33
:1025E00002EB8C0C02EE220ADCED001A93ED012ABC
:1025F000C4F3072C4FEA1C1E02EB8E0E01EE820A7A
:102600009EED001AD3ED021A0CF00F0C02EB8C0CAD
:10261000D3ED042A01EE210ADCED000A93ED031A42
:10262000C4F3074C4FEA1C1E02EB8E0E00EE810A2B
:102630009EED002A0CF00F0C02EB8C0C240EDCED4E
:10264000001A02EE220A93ED052A4FEA141C02EB4F
:102650008C0C04F00F049CED001A01EE820AD3EDFD
:10266000061A02EB8404D4ED000A01EE210A93ED70
:10267000071A20337F1E00EE810A002FA2D115E039
:1026800011F8014B93ED001A270902EB870704F0BC
:102690000F04D7ED000A02EB840400EE810AD4EDAA
:1026A000000A93ED011A083300EE810AB342E7D322
:1026B000EC0709D0097893ED001A090902EB8101B2
:1026C000D1ED000A00EE810AD0ED000A30EE800A5A
:1026D00080ED000AF0BD000000000000F0B59FEDA5
:1026E000380A059DEE0851E051F8044BD3ED002A5D
:1026F000E7B202EB8707D7ED001AC4F3072702EB16
:10270000870701EEA20A97ED002AD3ED011AC4F360
:10271000074702EB8707240E02EE210A97ED001A05
:10272000D3ED021A02EB8404D3ED042AD4ED000A9F
:1027300001EE210A93ED031A51F8044BE7B202EBC4
:10274000870700EE810A97ED002AC4F3072702EB02
:102750008707D7ED001A02EE220A93ED052AC4F38B
:10276000074702EB8707240E97ED001A01EE820A55
:10277000D3ED061A02EB8404D4ED000A01EE210A1F
:1027800093ED071A2033761E00EE810A002EABD19E
:1027900005F007040BE000BF11F8015B641E02EBBB
:1027A0008505B3EC011AD5ED000A00EE810A002C74
:1027B000F2D1D0ED000A30EE800A80ED000AF0BDC3
:1027C0000000000010B54169044688472069A04216
:1027D00000D1002010BD0120704700002DE9F04F0E
:1027E000002799B0894604463E46B84646E0A068B0
:1027F000C6EBC602416801EB82010E91806810A908
:1028000000EBC60A28480D91AA68406A120A62F3D2
:102810001F2001901C2105A8D5F80CB0FDF7EBFC9A
:10282000A869006800F0EEFE0590A869806806902F
:102830005FEA0A0008D0C0F800802968416029B129
:10284000498819B1012102E0404603E000210160FE
:1028500001B900200790A86901991C224068CDE9C0
:102860000A1B099005A90D98FDF7ACFC1C2210A9C4
:102870000E98FDF7A7FC7F1CBFB2761C0CB1208818
:1028800000E00020B04205D9606818B150F8265029
:10289000002DACD11FB1A0684168C9F8001019B073
:1028A000384600F003B80000504B000830BCBDE8CB
:1028B000C08F70472DE9FF5F82B00021DDE9043051
:1028C000020DDDF840B0034318D044F61050A2F2D8
:1028D000FF3242431514119801281FD0A5EB0B00BD
:1028E000401C5FEA000A4FF000064E4FDFF83891B7
:1028F000B046504615D5CAF1000413E011980124E2
:102900004AA3012801D16FEA0B010298119AC0E98C
:102910000031C0E9024206B000F08EB8CBF10000F1
:10292000DFE704460021404A491842EB0450CDE954
:10293000001012E0E00707D032463B4640464946C9
:10294000FDF7FFFF8046894632463B461046194652
:10295000FDF7F7FF06460F466410002CEAD1DDE9CB
:102960000401DDE90023BAF1000F06DAFDF7E9FF03
:1029700042464B46FDF7E5FF05E0FEF757F84246B5
:102980004B46FEF753F804460E460022284BFEF74E
:10299000E1F803D84FF0FF30014607E00022254B55
:1029A00020463146FDF71EFFFEF7BBF8102409E074
:1029B000002C0ADB0A220023FDF7B9FE039B30320C
:1029C0001A55641E50EA0102F2D1641C039AC4F144
:1029D00011031444119A012A03D0012208430DD196
:1029E0000AE0084304D000204FF0110B119072E769
:1029F000A3EB0B056D1E0DE05B4504DD4FF00002FF
:102A000005F1010504E003DA4FF00002A5F101052C
:102A1000002AECD002981199C0E90231C0E90045C2
:102A200079E70000000014400000F03F3000000093
:102A30000000F0430000E03F30BCBDE8C09F3038EC
:102A40000A2801D2012070470020704770B5054662
:102A50000C4648886988884202D9AAB1002070BD16
:102A600092B100260CE000BF6168C6EBC6006A6840
:102A700001EB800102EB80001C22FDF7A3FB761C1A
:102A80006088B042F0D801E0606868606088688063
:102A900020882880012070BD30B500B3F9B1F2B1B3
:102AA0005268E2B10F4C1368A34203D002600129BF
:102AB00013D014E00023121D07E000BF52F823508A
:102AC000A54204D040F823505B1C8B42F6D38B42C6
:102AD00005D152F82300A04201D1012030BD0020D1
:102AE00030BD0000DECAFAA170B50D4606001446DE
:102AF0001AD0CCB1104600F02BFE00B16088A8427D
:102B000012D10023042109E0C3EBC302606801EB8A
:102B10008202805820B146F823005B1CAB42F3D3FD
:102B2000AB4201D1012070BD002070BD0349884235
:102B300001D101207047002070470000DECAFAA1D1
:102B40002DE9FE4F92468946040003D0A08D20B1A6
:102B5000256B03E0002000F0FBB800250020E08298
:102B6000A082207BC043800702D030221121DCE00C
:102B7000B9F1000F61D0D5B32888C0B3D9F81800D7
:102B80000026D0F8008056E0A868006800EB061028
:102B9000019052D058B3C6EBC600029009EB8000FA
:102BA0000121009000F0DEFDDBF818305968884202
:102BB0001AD80098DBF80C208069D768D0F80CC0D0
:102BC000674511D19768D0F808C067450CD15268A5
:102BD0004068824208D1186800F005FD0746584653
:102BE00001F0D2FE874203D2182212219DE024E098
:102BF000DBF81800006800F005FD029920F07E4225
:102C000059F8210020F07E40824201D01922ECE7E1
:102C10000098406888B100988069006878B14146A2
:102C2000404500D208468046DDE900105A4600F0D3
:102C300092F8761C2DB1288804E01722D5E72122CE
:102C4000D3E70020B04206D9686820B150F826B01A
:102C5000BBF1000F98D1BAF1000F74D0A08D0128FC
:102C600006D9256B0C3503D0288808B1002658E01A
:102C7000182259E0A868006800EB061B3BD0BBF1A6
:102C8000000F38D0C6EBC60001900AEB800001218E
:102C9000009000F067FDD9F8183059688842E7D8ED
:102CA0000098D9F80C208069D768D0F80CC0674527
:102CB000DED19768D0F808C06745D9D1526840681E
:102CC0008242D5D1186800F08EFC0746484601F0D4
:102CD0005BFE8742CCD3D9F81800006800F092FC64
:102CE00020F07E4201985AF8200020F07E40824277
:102CF00003D0192218E0172216E000984068002837
:102D0000F9D000988069006868B14146404500D21A
:102D1000084680464A465846009900F01CF8761C42
:102D20003DB1288806E021221321204601F01EFB38
:102D300010E70020B04206D9686820B150F826900C
:102D4000B9F1000F96D1A4F814804FF0010002E70A
:102D50001EBCBDE8E08F70B504460E461546104611
:102D600001F012FE0146A060B06900684843E060CF
:102D700071686160726810442060A86902689200FE
:102D800007D4D0E90223D21A11448160A96960688E
:102D9000C86070BD70B50546002621E0A96883694A
:102DA000096801EB06141968890005D5D4E90112F8
:102DB0009868FDF707FA08E0D3E90212891A6268F9
:102DC0001144996080696168C160D4E901010844D7
:102DD00060602168884201D3E068081A761C606050
:102DE0000DB1288800E00020B04206D968680028AC
:102DF00003D050F826000028D0D170BD2DE9F04155
:102E0000054600262BE0A968096801EB06148169D4
:102E10000A6892000FD5A26889686068FDF7D2F948
:102E2000D4E90110014461602068814201D3E16866
:102E3000411A616012E0D4E9011211446160226814
:102E4000914201D3E168511A61608269D2E9023787
:102E5000DB1B1944916080696168C160761C0DB10B
:102E6000288800E00020B04206D96868002803D016
:102E700050F826000028C6D1BDE8F0812DE9FF4FAB
:102E800095B09B468946064600250FE2252877D156
:102E900000242746F84A0121059400E0044316F86F
:102EA000013F203B01FA03F01042F7D130782A2885
:102EB00011D06FF02F033078A0F13002092A16D814
:102EC000059A44F0020402EB820203EB4202104432
:102ED000761C0590EFE759F8042B0592002A03DAD7
:102EE000504244F40054059044F00204761C3078BB
:102EF0002E2816D116F8010F44F004042A280DD00C
:102F00006FF02F023078A0F13003092B09D807EBBE
:102F1000870302EB4303C718761CF3E759F8047BD9
:102F2000761C30786C280FD006DC4C2817D0682827
:102F30000DD06A2814D104E0742810D07A280FD15B
:102F40000DE044F400140AE044F4801401E044F479
:102F500040147278824202D104F58014761C761CEB
:102F6000307866280BD013DC582877D009DC00288D
:102F700075D04528F6D04628F4D047281AD19DE1CF
:102F800018E0632835D0642879D0652812D195E1FE
:102F9000702873D008DC6728F1D069286FD06E28BC
:102FA0000DD06F2806D1B5E073282CD0752875D0C8
:102FB000782874D05A46179990476D1C75E1C4F370
:102FC0000250022809D003280DD0D9F80010042897
:102FD0000DD00D6009F1040967E1D9F80010EA1776
:102FE000C1E90052F6E7D9F800100D80F2E70D7044
:102FF000F0E719F8041B8DF8001000208DF801008F
:10300000EA46012003E059F804AB4FF0FF306107B6
:103010004FF0000102D40DE008F101018846B942E9
:103020000FDA8045F8DB1AF808100029F4D108E01F
:1030300008F1010188468142FADB1AF808100029DC
:10304000F6D105985B46A0EB080721463846179A4B
:1030500000F097FA284400EB080507E04DE029E16D
:103060000DE01AF8010B5A4617999047B8F101087C
:10307000F7D25B4621463846179A13E142E00A220E
:103080000092C4F302524FF0000A022A08D059F805
:1030900004CB032A4FEAEC710AD00DE029E02AE0C4
:1030A00009F1070121F00702F2E802C1914609E0A7
:1030B0000FFA8CFC4FEAEC71042A03D14FFA8CFC16
:1030C0004FEAEC71002907DA0A460021DCF1000C16
:1030D00061EB02012D2202E0220504D52B228DF89E
:1030E0000420012203E0E20701D02022F7E7904606
:1030F00059E00A2102E010220DE010214FF0000AF1
:1031000000910BE010224FF0000A44F0040408275D
:10311000009203E008224FF0000A0092C4F302522A
:10312000022A05D059F804CB0021032A08D009E06F
:1031300009F1070121F00702F2E802C1914605E01A
:103140001FFA8CFC042A01D10CF0FF0C4FF0000890
:10315000220728D5702806D0009B83F0100353EA7D
:103160000A0305D00EE040228DF80420012208E079
:103170005CEA010206D030228DF804208DF80500AB
:1031800002229046009B83F0080353EA0A030AD107
:103190005CEA010201D1620705D530228DF80420D6
:1031A0004FF001087F1E582804D034A003900EA8C9
:1031B00002900DE036A0F9E753466046009AFDF70D
:1031C000B6FA84460398825C0298401E0290027010
:1031D0005CEA0100F0D1029806A9081A00F1200A61
:1031E000600702D524F4803400E00127574502DD52
:1031F000A7EB0A0000E0002000EB0A010090059810
:103200004144401A0590E00306D45B462146179AD4
:10321000059800F0B6F90544002706E001A85A46D3
:10322000C05D179990476D1C7F1C4745F6DBE00396
:103230000CD55B462146179A059800F0A2F9054483
:1032400004E030205A46179990476D1C0099481E9B
:1032500000900029F5DC08E0029802995A460078AF
:10326000491C0291179990476D1CBAF10001AAF10F
:10327000010AF1DC65E10000092801003031323338
:1032800034353637383961626364656600000000A2
:10329000303132333435363738394142434445468C
:1032A0000000000000F05BF90544761C307800282F
:1032B0007FF4ECAD19B0284600F04EB9620700D497
:1032C000062709F1070222F0070CFCE80223E14679
:1032D00003F000485FEA080C02D00FF2702C0DE0FA
:1032E0005FEA045C02D50FF2682C07E05FEAC47C59
:1032F00002D00FF2602C01E0AFF2700C4FF0FF38FB
:1033000023F00043CDF850C065280CD006DC4528DA
:1033100009D046281DD047283DD13DE0662818D069
:1033200067287ED138E00021112F01DB112000E059
:10333000781CCDE9000106A90EA8FFF7BBFADDE96C
:103340000F010E9A03910021009207F1010A0491E6
:103350004DE04FF000400097CDE9011006A90EA8FE
:10336000FFF7A8FADDE90F0203920E9B11990022E4
:10337000DDF80CA00093049211B9791C00EB010A4E
:10338000B7EB0A0004D4C0F1FF3007F1010A049042
:10339000AAEB0700019044E0012F00DA0127002189
:1033A000112F01DD112000E03846CDE9000106A90A
:1033B0000EA8FFF77FFADDE90F010E9A03910021B5
:1033C00004910092BA4621070CD40399514500DAC2
:1033D0008A46BAF1010F05DD009AAAF10101515C9C
:1033E000302908D0B84202DA10F1040F06DA0121C0
:1033F000CDE9011015E0AAF10101E9E7002805DC9B
:10340000049901440491AAEB000102E0411C5145DA
:1034100000DD8A460499401A401C01904FF000409C
:103420000290200704D40198504501DBCDF80480B8
:1034300000208DF84F0002980DF14F07B0F1004FBA
:1034400025D02B200E9002984FF0020800280CDAAD
:10345000404202902D200E9007E00A210298FDF7CD
:1034600050F93031029007F8011DB8F10001A8F1C0
:103470000108F2DC02980028EFD1791E0E9808703E
:10348000307800F0200040F0450007F8020D12A847
:10349000C01B00F107081498007800B1012000EB70
:1034A0000A01019801EBE07105984144401A401E61
:1034B0000590E00306D45B462146179A059800F074
:1034C00060F805441498007818B15A461799904747
:1034D0006D1CE00324D55B462146179A059800F041
:1034E00050F805441CE00498002807DBDDE90301DF
:1034F000884203DD0098405C179901E0179930205D
:103500005A469047049805F10105401C0490019823
:10351000401E019004D12E205A46179990476D1CE9
:10352000BAF10001AAF1010ADDDC05E017F8010B90
:103530005A46179990476D1CB8F10001A8F101088F
:10354000F4DC5B462146179A0598ABE62D00000097
:103550002B0000002000000030BCBDE8C08F2DE92A
:10356000F041044600251E461746880404D405E0B1
:1035700039462020B0476D1C641EF9D52846BDE8A9
:10358000F0812DE9F041044600251E469046C8030F
:1035900001D5302700E02027880404D505E0414606
:1035A0003846B0476D1C641EF9D52846BDE8F08149
:1035B00079B1C0F3C6125143C91DC0F3415321F084
:1035C0000701D940C0F34340042804D0082807D19C
:1035D00004E00020704701EB021101E001EB022141
:1035E000C91DC808704759B1C0F3C6125143C91D5F
:1035F00021F00701C0F34150C140C91DC808704700
:103600000020704770B54021C0F34342022A1BD00E
:10361000394A20F07E439C1A0D014E0193425FD03F
:1036200029DC364AA3EB0204934259D019DC402B23
:1036300057D0403BB3F580234CD0802B37D0AB42E2
:103640004FD12E49C91F4CE0C0F3C051C905C0F38A
:10365000C61241EAC21100F07F02114341F48021F9
:103660003FE0A4F54074F93C1FD00F2C35D0B44294
:1036700037D1234935E0234BE21A9C421BD00BDCA7
:10368000214AA2181DD0802A19D0AA4211D0A2F531
:103690008062073A25D117E00F2A18D0B2420CD029
:1036A0001A4BDA421DD11A491BE01A4919E01A498E
:1036B00017E01A4915E01A4913E01A4911E01A49AE
:1036C0000FE0194980390CE01449C91D09E014497B
:1036D0000F3106E01049803903E00E490F3100E058
:1036E000114600F080420A4300F00051114300F0FF
:1036F0000060084370BD0000400406004704040059
:103700004010040000047E00000482FF00F801FF66
:103710004010820140080400C000040040048400FE
:103720004008840040108400C000840070B5144636
:103730000D46064600F00CF840B17068C5EBC501B7
:1037400010EB810002D04460012070BD002070BDEC
:1037500028B1416819B1408808B1012070470020A4
:103760007047000010B502002AD0164B1068B3EB6A
:10377000C01F03D0144BB3EBC01F01D1012000E0E8
:10378000002008429069406802D01F3020F01F00DE
:103790005369D9B2012900D000211C0A07E0012990
:1037A00007D0936953F821305843491C1AB1234676
:1037B00002E00123F8E700238B42F0DC002800DC64
:1037C000002010BD006000420060000208B509A1A1
:1037D0000968009148B101789DF80020914204D118
:1037E00004226946FCF712FD08B1002008BD012043
:1037F00008BD0000038404842DE9FF4F83B0DDE998
:103800001141B1FBF4FADDE91370DDE91895DDE94A
:103810001668791B61430291DDF840E0DDF854C081
:10382000411B0191ACEB0801414306FB0090009164
:1038300003EB8001049B9E4502D19FED361A01E007
:10384000B7EE001A7E43664302EB86024FF0000992
:1038500002EB840B58E0002753E000BF0EEB890019
:10386000002690ED000A104620EE010A3CE00023FD
:1038700025F0030C22E000BFD1ED002A90ED003AC4
:1038800000EB840091ED012A02EE830AD0ED002ABC
:1038900000EB8400D1ED021AD1ED030A103102EEE3
:1038A000220A90ED002A00EB84001B1D01EE820A23
:1038B000D0ED001A00EB840000EEA10A9C45DBDC91
:1038C00009E000BFF1EC010AD0ED001A00EB840022
:1038D0005B1C00EEA10AAB42F4DB029B761C00EB02
:1038E0008300019B01EB83014645C0DB00987F1CF0
:1038F00001EB8001049800EB890009F1010980EDDA
:10390000000A5745AAD3121D9345A4D807B000F06A
:1039100003B800000000000030BCBDE8C08F00000C
:103920002DE9FF4F86B017ACDDE91EC794E84500CE
:103930009CFBF0F400FB14C4041B94FBF0F5DDE9E0
:103940001C9100FB154E99FBF2F502FB1594141B1C
:1039500094FBF2F502FB15450CEB0004641E94FB8E
:10396000F0FC09EB0204641E94FBF2F8A7EB0E04D2
:10397000DDE9143B491B1144491E91FBF2F7DDF8C8
:103980006CA00444641E94FBF0F4CDE9008CDDF8D7
:1039900058C0B3FBFAF102FB0CF200FB14225843AF
:1039A0005A43401ACDE90402301B48431A9A039047
:1039B00001FB06F0D21B5043DDE9008C029008FBAE
:1039C00006C0BBFBFAFB099A484302EB8002079E44
:1039D0001398B04202D1DFED2A0A01E0F7EE000AA7
:1039E000169809EB050606FB00E05843089B4FF0CC
:1039F000000803EB800E40463BE0002633E01398BE
:103A0000002500EB880090ED000A704620EE200AA9
:103A10001CE0002311E000BF00EB810C06E000BFBA
:103A2000B2EC011AF0EC011A01EE210A6045F7D35D
:103A3000DDF810C05B1C00EB8C00A342ECDB059BA7
:103A40006D1C00EB8300039B02EB8302BD42E0DBB5
:103A50000298761C02EB8002079800EB880008F1C0
:103A6000010880ED000A5E45C9D30EEB810E09F115
:103A7000010081465045C0D30AB000F003B80000F1
:103A80000000000030BCBDE8C08F00002DE9FF4FF2
:103A90002DED020B82B0DDE91709DDE914E8119A7A
:103AA00000FB08F0504303EB800A0027DDF84CB020
:103AB000199CA8E06342002B00DC0023ABEB04055B
:103AC000454500D34546E0180699504301EB800177
:103AD00003FB02F0EB1AABEB030555430195A8EB92
:103AE0000305554300950AEB800002FB03F5F0EE59
:103AF000400A00267AE0002325F00F0C63E000BFA7
:103B000091ED004AD0ED004A91ED013A90ED011A95
:103B100044EE840AD1ED023AD0ED022A91ED032A57
:103B2000D0ED031A91ED044A41EE030AD0ED044AA8
:103B300090ED063A90ED071A42EEA30AD1ED053A50
:103B4000D1ED062A41EE820A90ED052AD1ED071A41
:103B500044EE840AD1ED084A90ED084A42EE230A69
:103B6000D0ED093A91ED0A2A43EE220A91ED093A85
:103B7000D0ED0A2A41EE210A91ED0B1AD0ED0B1A75
:103B800044EE240A91ED0C4AD0ED0C4A43EE830A30
:103B900091ED0D3AD0ED0D3A42EE820AD0ED0E2AAB
:103BA00091ED0F2A41EE810A91ED0E1AD0ED0F1A18
:103BB00040304031103344EE840A43EE830A42EE33
:103BC000810A41EE820A9C459ADC06E0B0EC011ABB
:103BD0005B1CF1EC011A41EE210AAB42F6DB019BC2
:103BE000761C01EB8301009B00EB83004E4582DBDA
:103BF00005987F1CC0ED000A1299059800EB810022
:103C000005901A9804447745FFF454AF08B000F0CB
:103C100000B830BCBDE8C08F2DE9FF4F89462DEDBF
:103C2000028B8FB0DDE92C035843DDE92824DDE960
:103C300026B3DDE92075DDE91EA6D21A0D92BBF18F
:103C4000010F01D1012805D0B34501D101287CD055
:103C500000200BE12A98CDF838A018446843139946
:103C60007043DDF850B001EB80000C90CDF8289047
:103C7000ABF100609FED808ADDE92312514301FB27
:103C800006F8B0F1807F31D2002027E0BAF1000FB2
:103C900004D00E98B0EC010A0E9001E0B0EE480A94
:103CA00025980D9A2799CDE90840CDE9061222AB57
:103CB0000DF10C0C93E8070000968CE80700CDE9A5
:103CC00001755B460C9A0A991198FFF7DFFE0A9876
:103CD0000BEB880B001D0A9009F101008146B842E8
:103CE000D4D30FB0BDEC028B00F0C8B84FEA880007
:103CF000FEF726FC0B90002037E000200AE000BF12
:103D00000BEB800191ED000A0B9901EB8001401C47
:103D100081ED000A8045F3D8BAF1000F04D00E9867
:103D2000B0EC010A0E9001E0B0EE480A2599279800
:103D300006AB0D9A099183E8150022AB93E80700C2
:103D400003AB009683E8070000E01AE0CDE90175B7
:103D5000DDE90A130C9A1198FFF798FE0A980BEB0D
:103D6000880B001D0A9009F101008146B842C4D3B6
:103D70000B980FB0BDEC028B04B000F082B8FEF7D8
:103D8000B1BB002032E06042002800DC00202B990B
:103D90002B1B8B4200D30B462A99221801FB0521CD
:103DA000139A714302EB8102BAF1000101D08C46F3
:103DB00000E0CC46DDF89C801B1A0D99CDF81880E8
:103DC0000993CDE90710DDE92301CDE90401CDE92F
:103DD0000275CDE900C64946149B1198FFF70CFD0A
:103DE000259809EB870904440BF1010083462298CA
:103DF0008345C8D375E76042002800DC00202B997A
:103E00002A1B8A4200D30A462A99231801FB05314E
:103E1000139B714303EB810EBAF1000101D00B46F5
:103E200000E04B460D99CDE90A10DDF89CC0121A4E
:103E3000CDF824C00C92DDE92321CDE90621DDF87F
:103E4000B4C02C98CDF814C0CDF820B0CDE9035003
:103E50008DE8C80072464946149B1198FFF760FD33
:103E6000259809EB8709044408F10100229980464E
:103E70008842C0D335E70000000000001FBCBDE849
:103E8000E08F30BCBDE8C04FFFF779BFF0B5042B21
:103E9000DDE9055400EB840427D0082B27D12FE05F
:103EA00000236E0812E00F783F0902EB870797EDB9
:103EB000000A80ED000A11F8017B07F00F0702EB02
:103EC000870797ED000A80ED010A08301F465B1C4A
:103ED000B742E8D3EB0708D011F8013B1B0902EB0E
:103EE000830393ED000AA0EC010AA042D8D3F0BDF1
:103EF00011F8013B02EB830393ED000AA0EC010AE9
:103F0000A042F5D3F0BD70B5C66B416B04460025E9
:103F1000AEB1E9B1A1630120226CB0470220226C4E
:103F2000A16BB047A06BFEF74DFCA06301460320D8
:103F3000226CB047A06B6D1C0028EFD108E039B1AE
:103F4000A163A06BFEF73EFC6D1CA0630028F8D1B6
:103F5000284670BD03460020596B002908D0CB606D
:103F60000A69401C8A4203D0002A01D01146F6E7B4
:103F700070472DE9F041446B002594B101260027DC
:103F80002079C00707D0216A204611B18847304602
:103F900000E0384605442069A04202D008B104463A
:103FA000EEE72846BDE8F08110B570B169B162B1A5
:103FB000074C0460D1E90041C0E90141D2E9001297
:103FC000C0E903120123184610BD002010BD0000F7
:103FD000DECAFAA110B518B1044A0168914200D0B6
:103FE00000200446FEF7BCF9204610BD0001C0A128
:103FF00030B44AB140B139B1074C1368A34206D17D
:1040000030BC0C32FEF770BD30BC0020704730BCB5
:104010001C32FEF741BD0000DECAFAA130B44AB13D
:1040200040B139B1064C1368A34206D130BC121D11
:10403000FEF75ABD30BC0020704730BCFEF72CBDE7
:10404000DECAFAA138B50D46FFF7C4FF04000DD053
:104050000DB100202880A08D00B1206B6946FEF7CD
:10406000BDFB30B105B12880009838BD1022114643
:1040700002E018221121204600F078F9002038BD16
:10408000034810B54469FEF76BF9204610BD0000E7
:10409000504B00082DE9F04F89B00646DDE91210BB
:1040A0004FF0000A554663F30705CDE9011361F3AC
:1040B0000F259046544660F317458346FEF78BFB69
:1040C000304F01001CD0304800680123C0F30220AB
:1040D000042806D02D48182202600268182A13D03E
:1040E0000BE02B481422836083680BB1521EFBD176
:1040F000826812B90068401C0AD00846FEF7D9FB56
:10410000F86909B000F04AB803600268002AFCD1DF
:104110000846FEF7CEFBFEF723F9E6B11D49C8F8C5
:104120000010C6F8008000F062F9B0B1FFF7A8FFF8
:104130008146C5F30721E8B2002200F04CF905469C
:10414000C9F3072109F0FF00002200F044F985427D
:1041500005D07C680BE0386AD3E73C6807E00EA026
:10416000006800906846FFF731FB10B9BC68C6F8DC
:1041700000A0DDE901105A4600F02DF9C8F848000A
:104180002046BEE7504B0008002004E0084C0258CF
:10419000003002400001C0A10384048430BCBDE8AB
:1041A000C08F000010B5FFF715FF20B1BDE810402B
:1041B000103000F016B90148806910BD504B00085E
:1041C0002DE9F04F91B00C46FFF704FF050013D026
:1041D000B4B13BA12068FEF7A9FC06004FF0000B2C
:1041E00011D020680190D4E90301CDE90401D4E99C
:1041F0000101CDE9020143E0002011B000F066B8F2
:104200001122102158E001212046D4F804A0FFF724
:10421000A9FA804604F11C00D4F8209001211090E6
:10422000FFF7A0FA07461422274906A8FBF7CAFFA2
:104230000120B8F1000F02D0ADF81E0002E0ADF889
:104240001EB0002408941FB1ADF82600109802E0BB
:10425000ADF826B000200A90B9F1000F02D10FB1DD
:10426000132206E0BAF1000F05D1B8F1000F02D019
:10427000122210211FE0142206A901A8FBF7A2FFB9
:1042800086F00102144602A905F11C00FEF7DEFBD0
:1042900068B1224604A905F12400FEF7D7FB40B11E
:1042A0000320E8602846FFF755FE2846A5E71222BE
:1042B00000E013221621284600F058F89CE7000081
:1042C000696E697400000000A84B000830BCBDE8AE
:1042D000C08F70B5FFF77EFE041E08D0207B8007DC
:1042E00006D410221121204600F040F8002070BDB5
:1042F0002046FFF73EFEE06B60B1656B55B1D4E937
:104300000F322946002098472869A84202D008B1F8
:104310000546F4E7012070BD70B515460E46FFF75F
:1043200059FE04462A463146FEF70AFC00281CD0F6
:10433000A08D08B1256B00E00025012802D9266B6D
:104340000C360DE000260BE02846FEF723FD204644
:10435000FFF7D9FD3046FEF751FDE08A401CE082B0
:10436000E08AA18A8842EFD380B270BD002802D0D3
:10437000103000F057B8704738B50D46FFF72AFEE9
:10438000040008D00DB100202880A08D012805D997
:10439000206B0C3003E0102211460BE00020694630
:1043A000FEF71CFA18B105B12880009838BD182214
:1043B00011212046FFF7DAFF002038BD02460068D1
:1043C000010A012004E05368491E53F82130584384
:1043D0000029F8D17047000640EA014040EA022077
:1043E0007047002201680270026008467047012091
:1043F000704720B1806910B103C8FFF7D9B8012018
:10440000704710B1806900B1014609B188687047F2
:104410000020704720B1816911B140698068704700
:1044200000207047037813F0FF0F01D00020704781
:104430000170016862F31F210160012070470000D4
:104440002DE9F04F04468069ADB0018809B142689A
:1044500000E00022526832B109B1426800E0002257
:104460005268136800E00023012902D942680C3227
:1044700000E00022526842B1012902D942680C32A0
:1044800000E000225268166800E00026022902D9E6
:104490004268183200E0002252683AB1022902D97B
:1044A0004268183200E000225268126802299046E1
:1044B0000BD9426812F1180F07D032F8185F012D9E
:1044C00003D9526812B1526800E00022022902D9D1
:1044D0004568183500E000256D6845B1022902D90C
:1044E0004068183000E000204068806800E000204C
:1044F0000090D86841681A91F1684D681395CD68AD
:104500002695D1F80890C168239180681E90208D6F
:1045100080B21690A08D80B22590E06B018889B2A0
:104520000791808880B22990208E80B22890A08E3A
:1045300080B22790D8F80C00D0E901ABE0691D905B
:10454000986980682490D8F818008068069012B1A5
:104550009069806800E000202290B069216A876835
:104560000098FFF74EFF054619900098FFF752FF9D
:1045700021900098FFF73DFF2B90606A00B95448E6
:104580002799ABF101021C90491E02FB01B028994A
:10459000AAF101022A90491E02FB01A01B90D8F843
:1045A000183000201968C1F3C61CC1F341522CFA1F
:1045B00002FCC1F34341042901D008292DD1DA6856
:1045C0005AB3A1690C88032C04D9D1F8048008F1EE
:1045D000240801E04FF00008D8F80480B8F1000F7B
:1045E0000BD0032C02D94868243000E0002040683A
:1045F000006810B18169896800E0002180690C467B
:104600001A994068CDE90010996863462046FFF783
:104610003DFC211E01D0084600E006981F90079837
:10462000C0F1000800204CE029984142C8F1000088
:10463000002800DC0020864623982A9AA0EB080078
:10464000904200D31046279A289B12B21BB21B9CA3
:10465000CDE90E32CDE90C84CDE90A011D9BCDE9EF
:10466000083E1698CDE9049ACDE906B022981E9B23
:10467000139A1A998DE80F00394600201F9B249A3F
:10468000FFF7CAFA002413E087603146DDF870C0F6
:104690002B460846139AE047139807EB80072198AA
:1046A00005441998291A2B98814200DB199D641C36
:1046B000B0694C45E8D3C168816025992098884449
:1046C000401C269920908842AED32DB000F002B84D
:1046D0008549000830BCBDE8C08F00002DE9F04FCF
:1046E0002DED028B87B08069018809B1426800E036
:1046F0000022526832B109B1426800E000225268DB
:10470000156800E00025012902D942680C3200E05A
:104710000022526842B1012902D942680C3200E0FD
:1047200000225268146800E00024022902D942687D
:10473000183200E0002252683AB1022902D94268D8
:10474000183200E0002252681268022993460BD901
:10475000426812F1180F07D032F8183F012B03D925
:10476000526812B1526800E000220392EA68E368DE
:104770004FF0000AD2F804905A680192D3E902235C
:104780005A430092DBF818301A68C2F3C616C2F317
:104790004157FE400496032902D94668243600E0BA
:1047A0000026766856B1032902D94068243000E01B
:1047B00000204068006808B1866900E00026C2F366
:1047C0004340042801D008280ED1DF685EB1D6E945
:1047D0000001FEF7EDFED6F80CA002463946504621
:1047E000FBF7F0FC00E0BA46DBF8140000999FEDFF
:1047F0003C8AD0F80480A0698468A8698068029027
:10480000019804EB8007484304EB800005905EE0CC
:10481000DBF818008668039810B18069856800E0AD
:104820000025BAF1000F33D00498042815D02CE0ED
:1048300015B1B5EC010A01E0B0EE480A8DED060AAB
:10484000CDF800905246314606A8029BFDF7B0FE17
:104850009DED060A4644A4EC010ABC42E8D32FE0D1
:1048600015B1B5EC010A01E0B0EE480A8DED060A7B
:10487000CDF800905246314606A8029BFDF72EFF68
:104880009DED060A4644A4EC010ABC42E8D317E0B9
:104890000298069012E015B1B5EC010A01E0B0EE05
:1048A000480A8DED000A4B4631466846069AFDF7E8
:1048B0009DFD9DED000A4644A4EC010ABC42EAD3EA
:1048C000029901EB89000290019807EB8007059897
:1048D00084429DD307B0BDEC028B00F003B800000A
:1048E0000000000030BCBDE8C08F70B5054680698F
:1048F000018809B1426800E00022526832B109B172
:10490000426800E000225268146800E00024012997
:1049100002D942680C3200E00022526842B10129FB
:1049200002D940680C3000E000204068066800E0D2
:104930000026E86978B14068012804F1080016D023
:10494000FFF73CFD0246E869214683683046BDE832
:10495000704000F077B804F10800FFF72FFD024621
:1049600021463046BDE87040002300F049B8FFF70B
:1049700025FD0246E869214683683046BDE870405F
:1049800000F0C2B8704700000146C0684A698969F2
:10499000C068D26809685043044A1140A1F58022DA
:1049A000C03A01D1C01DC00870470000FFFF7F0161
:1049B0002DE9F0410B3020F00706104D19E020687A
:1049C000B04215D3B0420AD9871B201DD4F8048009
:1049D000FBF7F8FBA019C0E90078286004E06068E4
:1049E0002860201DFBF7EEFB201D2660BDE8F0814E
:1049F000251D2C68002CE2D10020F7E708000020DC
:104A000030B58B6984696FF0030000EB82019D680B
:104A1000A26868181144DFED0A0A0CE090ED000A64
:104A2000B5EEC00AF1EE10FA01D8B0EE600A81EDE1
:104A3000000A001F091F9A688242EFD930BD0000AA
:104A40000000000030B5D3ED021A93ED000A93ED9B
:104A5000011A8B6984696FF00305F5EEC01A05EB46
:104A600082019868A268F1EE10FA0844114444D219
:104A7000B5EEC01AF1EE10FA0FD112E0D0ED000A37
:104A8000F4EEC00AF1EE10FA03D870EEC00A60EE40
:104A9000810A001FC1ED000A091F9A688242EDD900
:104AA00030BD9FED181A0CE0D0ED000AF4EEC00AFC
:104AB000F1EE10FA01D8F0EE410AC1ED000A001F34
:104AC000091F9A688242EFD930BD00BFD0ED000ABD
:104AD000F4EEE10AF1EE10FA09D8F4EEC00AF1EEB4
:104AE00010FA06D870EEC00A60EE810A01E0F0EE1E
:104AF000610AC1ED000A001F091F9A688242E5D9C8
:104B000030BD00000000000030B5D3ED000A8B6915
:104B100084696FF0030000EB82019D68A268681849
:104B200011449FED0A1A0CE090ED000AB4EEE00A81
:104B3000F1EE10FA01D8B0EE410A81ED000A001F33
:104B4000091F9A688242EFD930BD000000000000C2
:104B500030100000011000000210000007020000E9
:104B600001020000010500001010000033410000A8
:104B70001010000001000000000000000100000013
:104B800000000000010000000100000040040400DB
:104B90000000000000000000000000000000000015
:104BA0000104000000000000DECAFAA100000000BD
:104BB000000000000000000000000000DDDDDDDD81
:104BC000DCBBBBDDDDDDDDDDDDDDDDDD988888889E
:104BD0008888888877777777778888888555555645
:104BE000666666666666666666688888833333329C
:104BF00022222222222222222228888D0000000046
:104C000004000000CC00002004000000200200206E
:104C1000040000006C0300200400000000040020D9
:104C2000040000001005002004000000840500209E
:104C3000000001002007002000000100F406002011
:104C4000D2BC33BE0E538BBE776262BE03A70BBECF
:104C5000076C363ECFFCB03E2676DC3EAD3FCD3E07
:104C6000D9B9BC3E5A46EB3DAA09EBBD221FD1BEC5
:104C7000CC2ACBBE97B611BF391FF0BEB2A0ABBED7
:104C80008F8C28BE8E7FD53C7757A93E7C2CE53E85
:104C900009EC083FA6421C3F0C23D23E6F81483EE0
:104CA0005767A2BDA79495BE461719BF6B1028BFC2
:104CB000CD2C10BF5034E5BEE4C9B6BDEB97C33D63
:104CC000B5A3E53EDEE2143FA4B6253F0FE1013F68
:104CD0000F20D93E87D3D23DA33157BE8852D4BED0
:104CE00048EBFBBE25F513BFB94EFCBE4430ACBE4D
:104CF000BDBE0FBEDAD9823ED47AFA3EE886153FB1
:104D0000533B083F9470B43E35C9433E2B2B2CBD1A
:104D10001CF1BEBE7DE7E9BED721C4BE276AABBE8B
:104D20004FF5FABDC28CBA3D77644A3D4B53E63D20
:104D30003E293E3EBE9F743E7CCF163E6FF6EBBBD7
:104D40003EEDF9BC13D7B7BDA8A7D1BD2E18CCBC7A
:104D500089B4CA3C1F1B57BDC71DEE3C9A521D3D6E
:104D60007BEA473D4DF9813C87E388BBD6F7DA3BC8
:104D7000DE72FF3BA6A9B13DA21450BD713E6D3D50
:104D8000987865BC98CC34BD818DA6BCE8C56D3DD6
:104D9000EC921B3D0FD04A3EC370683EFF20B63DEB
:104DA000DEF17F3D94A3853C5E413CBC19AE223DC3
:104DB000D85ED8BCBFE007BE045161BEFE79D7BE45
:104DC000692B97BEA6501DBEDD7E1D3DEF047F3EC4
:104DD00019E7AB3E5B58133FFFEEE03E2C8FA93E38
:104DE0003ADAA33DBC6A61BE7941DEBEED760FBF03
:104DF0003F472DBF9C1510BF0DE59CBEB0C0AABD9E
:104E000010CC533E39C4033F2EB12D3F95FC313FAA
:104E1000CF03013F37439C3E270913BD5E5DD5BEDE
:104E2000369A34BFFC472FBF9CE421BF0011E7BE78
:104E30004B2C60BE7C171C3EF0E5EC3EED682F3F2E
:104E40004C46393F45D3C33E4D1C3F3D4780D6BD00
:104E5000B22ECBBEF9D6ECBE7CD704BFA276E5BE9F
:104E6000005A89BE0B5031BED3DA053E6135AF3EE4
:104E70009645C43E32EBE53E8A2BCF3E1EABB13D9C
:104E800074C6ACBD700482BE1FA8CCBE909889BE0B
:104E90001A68EFBDBDEDD93D3B29AA3DD74F193E5C
:104EA000AF4FA43D4735FF3D95C97D3D7ED73ABD07
:104EB000D2CB5CBDDDBF553C2730CD3BE1E18D3C25
:104EC0008BD7CE3BEE0D88BCEFDFD73DFF03263DF1
:104ED0006F15983D70F730BDD3BFBBBCCC0B583BB2
:104EE000720C153DA552B8BD7EE5593DDD3A573EE1
:104EF00036C42D3E504B503E200A9D3D6E6C75BE13
:104F000067E6DCBED2B6B4BED8A8A0BE1B0EB4BD48
:104F100091DB203E825BAF3ECBB60A3F1B65F43E81
:104F20006F73C73E1E43A33CA8F806BEF784CFBEEE
:104F3000AF9D17BF0F7009BF9C4BF6BE445864BEAF
:104F400054C4AE3D2FCF933EB2C2153FC2A3373FEC
:104F5000E657103F6172CB3E8FD4C93DC06815BE85
:104F6000D82AEDBE99C91DBFFB3B29BF2EC0F1BE9B
:104F70000C9E7EBE51B5533BCF88B93ECD69CD3E28
:104F8000740F113F9CBFF53E2FFCF63E65AD543EBD
:104F900042C12E3A78FF80BE49E918BFFBBD14BF5D
:104FA000979B05BF70E1B8BE630DBFBD2CD4633EB7
:104FB000B094AB3E698BFF3E2D19D83E14028B3E58
:104FC000B6AF833DFD4D08BE9C199CBE46874CBEC6
:104FD0005E8970BE2692E2BD940163BB6635303EA9
:104FE00044812C3EBAAB273E2E4DF83C2632EBBD19
:104FF000519D3CBD218C7CBD8F62873CF4061A3DDF
:10500000CB41C8BCE0C1FEBCEE3F4EBB974F733CEA
:105010007827073D29A1A93C8C54B8BD42C916BBCD
:105020009ADF13BD22DB26BD7A8083BDEFDE49BD4A
:10503000FF2FB33CF284F53A643929BDFDCBAABDFC
:10504000E241CBBD10D0AFBDE31621BFA50220BF0A
:1050500067EE1EBF2ADA1DBFECC51CBFAEB11BBF79
:10506000709D1ABF328919BFF47418BFB76017BF9B
:10507000794C16BF3B3815BFFD2314BFBF0F13BFBC
:1050800082FB11BFD05E10BF06D30FBFC8BE0EBFDC
:10509000D6380DBF4C960CBF0F820BBFD9340ABF58
:1050A000935909BF554508BF173107BFA04406BF34
:1050B0001A8E05BF5EF403BF4CFC02BFE2CB01BFFA
:1050C000A4B700BFCD46FFBED049FDBED6F5FABE9F
:1050D000B6B8F8BEDFA4F6BEE3F2F3BED5CEF1BE9D
:1050E0000B3FF1BEF002EEBE7E3FEBBED375EABED3
:1050F0007D89E7BE0261E5BE8638E3BE0A10E1BEE7
:1051000096EBDDBE64DDDBBE9796DABE1C6ED8BEC4
:10511000A045D6BEA054D4BE1C42D2BEB0C0CEBEA6
:10512000BB37CDBE367BCBBECCDDC8BE4128C7BEAB
:105130008809C4BEB00DC2BE8C4BC0BE7DB1BEBE20
:1051400052DDBCBE2E6CBABE12CBB7BEC9C6B5BE50
:10515000BACDB3BE4387B0BEC45CAFBE1248ACBECE
:10516000AFCEAABEE6F7A8BE00CBA6BE4956A5BEE6
:105170002461A3BEED2AA0BE512C9EBEBFE69BBEFD
:105180002E7999BE883597BEF58B95BE021394BED5
:10519000363091BE413E8EBEDD7B8CBE59D789BE76
:1051A0001CA288BE8B9085BE404A84BE34E681BE78
:1051B0000C5580BE80A97BBE888076BE87E674BE13
:1051C0004E5A6FBE7A2B6ABE67EA65BE20E061BEAA
:1051D00099385DBE638759BE170E55BE6DFC50BE33
:1051E000A4554CBEA5CA47BE560244BE31FC3EBEC5
:1051F000F60F3BBE825736BE6E7D31BE4FB12EBE1E
:1052000087922ABE488C26BE538021BE4C821DBE8A
:10521000B0E017BEC80D14BE638E0FBEE0240ABEF8
:10522000118D06BE0EC002BE9875FDBD00C3F4BD53
:10523000EF91EBBD3723E3BD51C1D9BD2F06D2BDE0
:105240005C9DCABD38AEC2BD4ABEB8BD671AAFBD0F
:105250004493A6BDBBC99DBDEA8396BDAA2F8CBD54
:10526000EE7184BD84B076BD9FEF65BD0A6E53BDFF
:10527000BBEB44BD75B235BD079721BD326D0FBD87
:10528000BEE0F5BCA027D6BC5EE7B4BCB3C195BCFC
:10529000C5E267BCE3F81EBC8137BABB3B5EAFBA60
:1052A0004AB9513B9C7BE73B8D193D3C0D537C3CFF
:1052B0005568A03C9998C43CC1D2E53C89FB063DA9
:1052C000D4BF193DA5DE273D95B5373D4EDF493D9D
:1052D000496B5B3D970E6C3D451B7F3DE6B3873DBB
:1052E000354F903D8DDC983DF409A23D2423AC3D23
:1052F0007E8EB53DF176BD3D0B4DC43DE157CC3DB5
:1053000032FAD43DB62BDE3D936FE73D1FC0F03D32
:10531000BA66F83DA11F003E8854043EFB0F093ECB
:1053200064BA0D3E0E18113EE601163ED6B81A3E7E
:10533000BAC41F3EE5A1233EF63A273E9B592B3EB9
:10534000CFD72F3E4FCB343E2680383E46EE3D3EF3
:105350003B61413E9381453E94D7493E94CA4E3EBF
:105360004A45523E279C563E02A75B3E87305F3E31
:105370003DCD623E2EB4683E64BD6C3E9802703EE8
:10538000137F753EA257783E1B7C7C3E5E7D813E3E
:10539000F2ED823EB8FC843E4CB4863E7422893ED7
:1053A0000B1C8B3EB2E48D3E1408903E1D38923E9D
:1053B000B60A943E360C973EA3DB983EF6C49A3E5E
:1053C00049119C3EEE159F3E693EA13E5AB5A33E53
:1053D0003ECCA53E5045A83E82D9A93EA4EEAA3EA9
:1053E000B576AD3ECB59B03E4682B23EC2AAB43E7F
:1053F0003ED3B63EC7EBB83E3524BB3E4FDDBC3E88
:105400002C75BF3E2C5BC13E1552C43E9FEEC53E7F
:105410001B17C83E963FCA3E1268CC3E8E90CE3EC9
:10542000DBC2CF3E85E1D23E010AD53E7C32D73E7B
:10543000F85AD93E7383DB3EEFABDD3E6BD4DF3EE3
:10544000E6FCE13E6225E43E9AA1B0AFADA484AD96
:10545000879B96A6C6939393A8A898A2899DA88F88
:10546000B0A6B87497ADB26D8B9A96A1A7A99DCA44
:10547000AB9C7CA39AA39FCF9793A8BF9D8F92AD1F
:10548000B0BAD0ACCCE1DB8185C4837181CCCA9049
:10549000C2EDA2A679B79885606364637B8D9F880F
:1054A000C8A08BE1AEA8AC927D757E78ABA7919A2F
:1054B000C5B69484A2DA978A90798B938FA5A59B21
:1054C0009AA1929AA1929A8D968D8E96796367761B
:1054D000776A9EAFA0AEB5BC9B96A86663826984CE
:1054E0007ABEACB18A8686404E535A6D67B7D4BA3D
:1054F000E3DCEDAF80965E3B41363E587F9094C929
:10550000D2C3A9B0B57877957B787884708B949165
:10551000A2AA9A8F7B958D8D937D808C9888A79574
:1055200093878C9C8186BAAF9C5B4179444B4D84B8
:105530008771C4C7CFD7D4D6939A926B6E7D4B69CF
:105540007F685A68759669A4B2B9DACCBCCEB5BA90
:1055500028655B52293D40968B97AFB2B9ABB095A9
:10556000929095A189B09A9293888B8389978B8E1C
:105570007ABAAA99B096AA8A7E956E79667D8C8F42
:1055800095A99DA49E947367717375608CA797AF5E
:10559000C3AAC4A9BE7D907F8DBEC69CAD978888E6
:1055A00099908789A8ABADD8FFDCA589AA847D81B5
:1055B000919495769F9FB895AEB08BA0AD89A4AA23
:1055C0009F9EA48F957CB57E9292B6BDEF9F9499D5
:1055D000938D7E7F9D828793BBA3D8979EB6A7AB02
:1055E0008DAD87969C9B837784C5BFA7C7B8A8A6B7
:1055F000AB969289947E8684BA8899CDC3AEA587EE
:10560000A987879C9CAA97AD9A8CA9889FA7A9B0C7
:105610009AAFBFA08C9C9A9B859AA08098D3CAB958
:10562000AFA5B6A99B7C867C71818885AD9884A442
:10563000A997C2B4A1AC88769D709F87A1A49284DB
:10564000AE9F8BA281999F878674909D83879AAB2A
:1056500083A38B9786CAC4C18D946BA2A1AE84A18B
:105660008CA3AB9ED49A9495969382999D8C9CA47E
:10567000A2B487A59397A2ABC2A79FA1A69B9A9914
:10568000888FB99FB9A4F6BEB09DABA7868995ABAC
:105690009F80A4A9B6B5C09FA7A3B1BCBAA198A585
:1056A000AEAAB585BEA18ABBB1B8ACC5B4B1B78D41
:1056B000A7A99F9C95A2B1ACC8A8AAA6AAADA1A370
:1056C0009D91A8987E849BABA3A9B69BABB69CA0EA
:1056D000908DA879949DAF9D97C7A6A6AE829DADEB
:1056E000A4AD9BA59EA19BA2AC9DB099ACA292AE8D
:1056F000ACB0A7B3A49C9FAAA7A4B596ACA394935F
:1057000093A19FBFC7BCA3AEA7B29DA6A9ABA0B5EE
:10571000ACC2839F83979CAC9ECBB3A09598989284
:1057200097AAA0A6A1B6A1A8A898AAAD96AEA8A629
:1057300092A2A7918D978CA194A2D3B7A3ADA8787C
:1057400095A18FA89CB2A7AF969A98A1A18FB9A84E
:10575000AF817F907E7C799B9499949B9AA5A9A513
:10576000B8B1AE979AAC68597A6E665E768987B39F
:10577000AEBBC0AFB9657E714C477A89928DC8CBFC
:10578000C5ADA0B9674F584176606E8B88C4C9BB60
:10579000CFB7C594A09D8B5E6E606F59647A6483A9
:1057A0008590A6ADA3BEC9CEAA9AA75E4A5F456FF3
:1057B00067828882B5ACA5A9A4A9998693858897A4
:1057C0009A8D91919382979F877E919AAA9BA59E8D
:1057D000A3915F797C858085B6A8ACA5AFB57974B7
:1057E0008E69545A7D9F7BBEAFBD9D8488738B8725
:1057F0008A8078BBC2BAC3D5CA745A8551202E4D4F
:1058000040427EB2ABE6D5C9B2AEB9816F83664B7A
:10581000345E6057A3A59DB0AAAEA5BDAFABB7BC23
:105820009279AE8863684F5B6A70687DA9A8BD7283
:10583000776B7F85779EABA7ABB2B578808C4F5FD7
:105840005698AB99D3C9C9C8B8BB65476112121C39
:105850007A7D69C7CEC6D6D9D9A9A1AA7154755F78
:105860005A517C8D77989499A49D9D9AA39F919C61
:10587000A1A0969A86758C84828C7571697F8874D4
:10588000A8AD9DB4A8A8AEAEAA847D7C5962638001
:10589000896A98A299C4B9B5A89C9288857F6370DB
:1058A000728D989CABB499B1B3A8837879827C80CF
:1058B000A4ABA8A794A38A6C676E714E7B8485C540
:1058C000C6BAC1B2C07A6F825E60567E8381B8B4B8
:1058D000ACA297A88091817F768B98969BBCA3AA57
:1058E00081818B516E3F859181B5CEB5D2CCCD9360
:1058F0007B9C3C33204F3C3991A192D5CEC8C2BF8E
:10590000CEA57E897762606063627B857E848D9D93
:1059100087929D9CAD98AFD59378A799A7B3A68C95
:1059200096B8A694A4BD86908B969C7C8BA78E92ED
:105930008B9DBC96B7BED1B08F8BA48E9083A49E56
:10594000B294A99ED7A784B2AFACA6B5A592A37B0B
:105950009A8B949A88B7A09EA0BAB19199947B73C0
:105960007F8ED4A08BB2CAC8A59C989D867E8D845C
:10597000978D9394AE939BA593C5AE9381A08A9E79
:10598000AC91909E98969A987D82809895959A97DA
:105990009585787F7975709D998DB0B4BBBCBDC07D
:1059A0009C8E8D624F4B242634596461D1C6AEE57E
:1059B000DBEBC0B2B75B365A1925285C746CB7BFF5
:1059C000ABB5B5B1A38E9D7673756D687393A49CCA
:1059D000B09FA59992A67C7860344E55899A83AF82
:1059E000BABCB1AFB5858A8C7B7A65B1A0AAB6C3C3
:1059F000BCA194A063495645613894B69FC4C3B313
:105A0000AB979D7A7D8288818D899DA06A678F730F
:105A10007162A8A39C9E92A9A392B08D76636D84B7
:105A2000789F9B9AA7AE93C3C8D39E7BB43D4D3954
:105A30000F551A76978CD6D7D9BCB8BB645D7779E9
:105A40006440A3AAA19AA6988A628F618379A9A9C2
:105A5000A4C2B8B4956D896B82767F87839085C226
:105A6000C5A2837C9AA8858DA7C57D8FC7F0A7B0F6
:105A70009192927D80BBC17B88C79CAF9795B37F85
:105A8000759AA4B4E492BBBB877981C496709EC911
:105A9000C6ACC6819FB27B7688C39C8BA6EDC589B8
:105AA00090B48C878E8FB4968694B7988CA3959675
:105AB00099A3ACD89C8E9B8889A872B49DB9948D0B
:105AC000A7D79F87AF93B578B65F886B8AA295C733
:105AD000BAB8B5A4B16A738A5B3A45858D71A4B032
